:020000040800F2
:10000000200700208901000839280008BB210008CA
:1000100035280008710300085D2D0008000000006D
:10002000000000000000000000000000652800083B
:1000300083030008000000003B2800086728000830
:100040009F0100089F0100089F0100089F01000810
:100050009F0100089F0100089F0100089F01000800
:100060009F0100089F0100089F0100089F010008F0
:100070009F0100089F0100089F0100089F010008E0
:100080009F0100089F0100089F0100089F010008D0
:100090009F0100089F0100089F0100089F010008C0
:1000A0009F0100089F0100089F0100089F010008B0
:1000B0009F0100089F0100089F0100089F010008A0
:1000C0009F0100089F0100089F0100089F01000890
:1000D0009F010008392D00089F0100089F010008BA
:1000E000BD0300089F0100089F01000800F002F80E
:1000F00000F03AF80AA090E8000C82448344AAF188
:100100000107DA4501D100F02FF8AFF2090EBAE885
:100110000F0013F0010F18BFFB1A43F0010318473B
:10012000C08A0000E08A0000103A24BF78C878C175
:10013000FAD8520724BF30C830C144BF04680C60ED
:10014000704700000023002400250026103A28BF35
:1001500078C1FBD8520728BF30C148BF0B60704739
:100160001FB51FBD10B510BD00F068F81146FFF7B0
:10017000F7FF03F0C3FB00F086F803B4FFF7F2FFCC
:1001800003BC02F018FF000008480047FEE7FEE746
:10019000FEE7FEE7FEE7FEE7FEE7FEE7FEE7FEE737
:1001A00003480449024A044B70470000ED00000870
:1001B00020030020200700202003002070474FF07C
:1001C000000200B5134694469646203922BFA0E8A7
:1001D0000C50A0E80C50B1F12001BFF4F7AF0907B3
:1001E00028BFA0E80C5048BF0CC05DF804EB8900A4
:1001F00028BF40F8042B08BF704748BF20F8022BE7
:1002000011F0804F18BF00F8012B704770477047FE
:100210007047704710B500F009F8006810BD10B5C0
:10022000044600F003F8046010BD00000048704769
:10023000C002002000487047C00200207546FFF74A
:10024000F9FFAE4605006946534620F00700854693
:1002500018B020B5FFF7A4FFBDE820404FF000061E
:100260004FF000074FF000084FF0000B21F007019E
:10027000AC46ACE8C009ACE8C009ACE8C009ACE8E1
:10028000C0098D46704710B50446AFF30080204684
:10029000BDE81040FFF771BF70B504460025206827
:1002A000806800F00100F0B12068806820F0010053
:1002B0002168886000F0F4FE05460EE000F0F0FED4
:1002C000401B022809D9A06A40F01000A062E06A31
:1002D00040F00100E062012070BD2068806800F0FD
:1002E00001000028EAD10020F6E7000038B50446F6
:1002F0000025002000902068806800F0010080BB8D
:100300002068806840F00100216888601648006815
:100310001649B0FBF1F0009002E00098401E0090FA
:1003200000980028F9D100F0BBFE054613E000F06C
:10033000B7FE401B02280ED9A06A40F01000A06250
:10034000E06A40F00100E06200BF002084F8240071
:1003500000BF012038BD2068806800F0010000283F
:10036000E5D00020F6E700004800002040420F00E2
:1003700000BFFEE74A7842700A7802708A7882707D
:100380007047704700BF00BF00BF00BF00BF00BF85
:1003900000BF00BF00BF00BF00BF00BF00BF00BF65
:1003A00000BF00BF00BF00BF00BF00BF00BF00BF55
:1003B00000BF00BF00BF00BF7047000010B54FF482
:1003C000C04000F0A7FC4FF4C0400149086010BDD8
:1003D00014040140F8B5044600260020009000BF38
:1003E00094F82400012801D10220F8BD012084F8EE
:1003F000240000BF2046FFF74FFF0646002E62D1C3
:10040000A06A20F4885040F00200A062022000F0B0
:10041000F7FE30490968B1FBF0F04000009002E0BF
:100420000098401E009000980028F9D12046FFF760
:100430005DFF2068806840F008002168886000F057
:100440002FFE054611E000F02BFE401B0A280CD9B8
:10045000A06A20F0020040F01000A06200BF00205F
:1004600084F8240000BF0120BFE72068806800F006
:1004700008000028E7D12068806840F00400216867
:10048000886000F00DFE054611E000F009FE401BFB
:100490000A280CD9A06A20F0020040F01000A062E7
:1004A00000BF002084F8240000BF01209DE72068E1
:1004B000806800F004000028E7D1A06A20F0020064
:1004C00040F00100A06200BF002084F8240000BFBB
:1004D00030468AE74800002038B502460023002055
:1004E000009000BF92F82400012801D1022038BDFD
:1004F000012082F8240000BF4868072812D2106843
:10050000406B0C79641E04EB84051F24AC40A043AF
:100510000D796D1E05EB85050C68AC402043146811
:10052000606327E048680D2812D21068006B0C79D0
:10053000E41F04EB84051F24AC40A0430D79ED1F9C
:1005400005EB85050C68AC4020431468206311E07E
:100550001068C06A0C790D3C04EB84051F24AC4084
:10056000A0430D790D3D05EB85050C68AC4020439B
:100570001468E06208680A2812D31068C0680C7812
:100580000A3C04EB44050724AC40A0430D780A3D27
:1005900005EB45058C68AC4020431468E0600FE033
:1005A000106800690C7804EB44050724AC40A043B4
:1005B0000D7805EB45058C68AC402043146820613C
:1005C0000868102802D00868112827D1174C106835
:1005D000A0421ED11068806800F40000F0B91068D5
:1005E000806840F400001468A0600868102815D1E5
:1005F0000F4800680F4CB0FBF4F000EB80004000A7
:10060000009002E00098401E009000980028F9D168
:1006100004E0906A40F020009062012300BF0020B7
:1006200082F8240000BF184661E700000024014062
:100630004800002040420F0001460868C06C704727
:100640002DE9F0410446002700250026A84614B9EC
:100650000120BDE8F081A06810B1207D00B100BF8D
:10066000A06A30B90020E06284F82400204600F03F
:1006700097F82046FFF710FE0746A06A00F010002A
:10068000002873D1002F7ED1A06A20F4885040F05A
:100690000200A0623F4AD4E90001904208D1E0691B
:1006A000B0F5402F02D14FF4002002E0E06900E0F5
:1006B000E0690143207B41EA40000643A068B0F5B1
:1006C000807F02D0A068012802D14FF4807000E042
:1006D00000200543207D012811D1207B38B9A06975
:1006E000401E4FF4006141EA4030054307E0A06A34
:1006F00040F02000A062E06A40F00100E062206863
:10070000406820F469402843216848602068806878
:1007100021490840304321688860A068B0F5807F97
:1007200002D0A068012802D14FF4807000E00020C0
:10073000B0F5807F03D1208A401E4FEA0058206820
:10074000C06A20F4700040EA08002168C86220688E
:10075000806812490840B04209D10020E062A06AD6
:1007600020F0020040F00100A06211E00BE0A06A5E
:1007700020F0020040F01000A062E06A40F00100AA
:10078000E062012704E0A06A40F01000A0620127A7
:1007900038465EE7003C0140FDF7E1FFFE0E1FFF1B
:1007A00010B58CB004461C492068884232D118210B
:1007B00002A8FFF704FD00BF00BF1848806940F49D
:1007C0000070164988610846806900F40070019045
:1007D00000BF00BF00BF00BF00BF0846806940F0F7
:1007E000080088610846806900F00800019000BF99
:1007F00000BF00BF022002908003049002A800F016
:100800009BFD012008900320099008A9044800F0EE
:100810008FFA00BF0CB010BD002401400010024050
:10082000000C0140F8B504460D460026002000905B
:10083000002700F035FC06462068806800F48070D0
:1008400050B1A06A40F02000A06200BF002084F8F0
:10085000240000BF0120F8BD2068406800F48070CB
:10086000F8B92068C06A00F47000D0B912E0681CC2
:1008700080B125B100F014FC801BA8420AD9A06AFF
:1008800040F00400A06200BF002084F8240000BFF4
:100890000320E0E72068006800F002000028E6D0AE
:1008A00050E0022000F0ACFC36490968B1FBF0F0E2
:1008B00021680969344A114091B92168C9689211C7
:1008C000114069B921680969304A114031B921687C
:1008D000C9689211114009B9142117E0292115E0C6
:1008E00021680969294A114021B92168C968921112
:1008F000114041B121680969254A114029B921688F
:10090000C968114009B9542100E0FC2100FB01F73E
:1009100015E0681C80B125B100F0C2FB801BA84225
:100920000AD9A06A40F00400A06200BF002084F849
:10093000240000BF03208EE70098401C0090009820
:10094000B842E6D36FF0120021680860A06A40F454
:100950000070A0622068806800F46020B0F5602F0D
:100960000DD1207B58B9A06A20F48070A062A06AE3
:1009700000F4805018B9A06A40F00100A062002085
:1009800069E700004800002024499224922449127B
:100990004992240070B50446002500BF94F8240055
:1009A000012801D1022070BD012084F8240000BF7D
:1009B0002046FFF79BFC0546002D77D1A06A40F248
:1009C0000121884340F48070A0623C49206888423D
:1009D00008D13B48006800F4702008B9012002E00B
:1009E000002000E0012078B1A06A20F48010A0620D
:1009F0002068406800F4806000B3A06A20F40050D2
:100A000040F48050A06219E0A06A40F48010A06217
:100A10002B49091F2068884203D028492068884252
:100A200004D12748006800F4806000E0002028B16D
:100A3000A06A20F4005040F48050A062A06A00F444
:100A4000805020B1E06A20F00600E06201E0002062
:100A5000E06200BF002084F8240000BFC01E2168AF
:100A600008602068806800F46020B0F5602F16D11F
:100A700012492068884208D11148006800F47020AB
:100A800008B9012002E0002000E0012038B1206810
:100A9000806840F4A000216888600CE006E02068CF
:100AA000806840F480102168886004E000BF002066
:100AB00084F8240000BF284675E7000000280140A4
:100AC0000424014070B50446002594F82100022852
:100AD00003D00420A0630125C1E02068006820F055
:100AE0000E00216808602068006820F0010021687D
:100AF00008605C492068884252D95A497839206890
:100B0000884201D1012047E0564964392068884273
:100B100001D1102040E0534950392068884201D16A
:100B2000801539E04F493C392068884201D1801452
:100B300032E04C4928392068884202D14FF4803095
:100B40002AE0484914392068884202D14FF48010C5
:100B500022E044492068884201D140041CE0424917
:100B60002068884201D1012016E03F4914312068F5
:100B7000884201D110200FE03B492831206888428B
:100B800001D1801508E038493C312068884201D104
:100B9000801401E04FF480303349091F086051E0B0
:100BA000304978392068884201D1012047E02D4939
:100BB00064392068884201D1102040E02949503929
:100BC0002068884201D1801539E026493C392068E7
:100BD000884201D1801432E02249283920688842B5
:100BE00002D14FF480302AE01E491439206888422F
:100BF00002D14FF4801022E01A492068884201D1C6
:100C000040041CE018492068884201D1012016E008
:100C1000154914312068884201D110200FE0124993
:100C200028312068884201D1801508E00E493C3106
:100C30002068884201D1801401E04FF480300949D6
:100C400080394860012084F8210000BF002084F82A
:100C5000200000BF606B10B12046616B88472846BA
:100C600070BD0000800002400804024010B5044638
:100C700000BF01224021234800F00CFA00BF0520EC
:100C800002F082FA4FF480411F4800F0F1F900BBF6
:100C90004FF480511C4800F0EBF948B91B4800881C
:100CA000401C80B219490880FA2823D1088021E02D
:100CB0004FF48051144800F0DBF901281AD1134891
:100CC0000088401E80B21149088098B90020088031
:100CD00010E04FF400510C4800F0CAF950B90C482C
:100CE0000078012803D102200949087002E00120A0
:100CF0000749087000BF00224021024800F0CAF9ED
:100D000000BF10BD00080140000C01400C00002095
:100D10000400002010B5044604480068204020B1BB
:100D2000024804602046FFF7A1FF10BD14040140F3
:100D30002DE9F847024600239C467BE14FF001086D
:100D400008FA03F4D1F8008008EA0400A0427DD13B
:100D5000DFF8F4A2D1F80480A8EB0A09D0453AD014
:100D600014DCB8F1030F50D009DCB8F1000F31D01A
:100D7000B8F1010F1CD0B8F1020F49D120E0B8F151
:100D8000110F18D0B8F1120F42D11EE0B9F5881F2B
:100D900025D006DCB9F5803F20D0B9F5801F37D1CA
:100DA0001AE0B9F5001F18D0B9F5041F30D117E0CB
:100DB000D1F80CC02DE0D1F80C8008F1040C28E02B
:100DC000D1F80C8008F1080C23E0D1F80C8008F170
:100DD0000C0C1EE000BF00BF00BF00BF00BF00BF83
:100DE000D1F80880B8F1000F02D14FF0040C0BE0ED
:100DF000D1F80880B8F1010F03D14FF0080C14614D
:100E000002E04FF0080C546103E04FF0000C00E0EA
:100E100000BF00BFFF2801D8904601E002F104089E
:100E20004646FF2802D84FEA830803E0A3F10808EA
:100E30004FEA88084746D6F800804FF00F0909FAB4
:100E400007F928EA09080CFA07F900E07AE048EA0D
:100E50000908C6F80080D1F8048008F08058B8F17D
:100E6000805F6FD100BFDFF8E481D8F8188048F0C8
:100E70000108DFF8D891C9F81880C846D8F818805A
:100E800008F00108CDF8008000BF00BF4FEAB93874
:100E90004FEA930958F829504FEA83784FEA1879B6
:100EA0004FF00F0808FA09F825EA0805DFF8A081D5
:100EB000424502D14FF0000824E0DFF89881424516
:100EC00002D14FF001081DE0DFF88C81424502D1CC
:100ED0004FF0020816E0DFF88481424502D14FF05E
:100EE00003080FE0DFF87881424502D14FF0040893
:100EF00008E0DFF87081424502D14FF0050801E0BB
:100F00004FF006084FEA83794FEA197908FA09F891
:100F100048EA0505DFF850814FEA930948F829505F
:100F2000D1F8048008F48038B8F5803F0BD1DFF8A1
:100F30003C81D8F8008048EA0008DFF83091C9F811
:100F400000800AE075E0DFF82481D8F8008028EA04
:100F50000008DFF81891C9F80080D1F8048008F47F
:100F60000038B8F5003F0ED1DFF8008108F1040821
:100F7000D8F8008048EA0008DFF8F09009F1040989
:100F8000C9F800800DE0DFF8E48008F10408D8F823
:100F9000008028EA0008DFF8D49009F10409C9F8B4
:100FA0000080D1F8048008F48018B8F5801F0ED1B5
:100FB000DFF8B88008F10808D8F8008048EA00088F
:100FC000DFF8A89009F10809C9F800800DE0DFF802
:100FD0009C8008F10808D8F8008028EA0008DFF8AB
:100FE0008C9009F10809C9F80080D1F8048008F450
:100FF0000018B8F5001F0ED1DFF8708008F10C085A
:10100000D8F8008048EA0008DFF8609009F10C0980
:10101000C9F800800DE0DFF8548008F10C08D8F81A
:10102000008028EA0008DFF8449009F10C09C9F8AB
:1010300000805B1CD1F8008028FA03F8B8F1000F9B
:101040007FF47CAEBDE8F88700001110001002406C
:1010500000080140000C0140001001400014014054
:1010600000180140001C014008000140000401403C
:10107000024693680B400BB1012000E0002070474E
:1010800010B5C26821EA020302EA010443EA0443FC
:10109000036110BD0AB1016101E00B0403617047F7
:1010A00001480068704700004C00002003480068B9
:1010B0000349097808440149086070474C00002042
:1010C0005400002010B50848006840F010000649A0
:1010D0000860052000F080F80F2000F007F800F00D
:1010E0002BF8002010BD00000020024070B504461F
:1010F0000E4800784FF47A71B1FBF0F00C490968A2
:10110000B1FBF0F5284600F019FD08B1012070BDD3
:10111000102C07D200222146501E00F01EF8054870
:10112000046001E00120F2E70020F0E75400002015
:101130004800002050000020704701460846002863
:1011400009DB00F01F0301229A4043099B0003F1D1
:10115000E023C3F8002100BF70472DE9F05F80460F
:101160000D461646002701F0A3FE074639462A46DB
:10117000334601F00700C0F1070ABAF1040F02D9A3
:101180004FF0040A01E0C0F1070AD14600F1040A59
:10119000BAF1070F02D24FF0000A01E0A0F1030AF2
:1011A000D4464FF0010A0AFA09FAAAF1010A0AEA3A
:1011B000020A0AFA0CFA4FF0010B0BFA0CFBABF126
:1011C000010B0BEA030B4AEA0B042146404601F0EF
:1011D00077FEBDE8F09F000000BF00F00702064B5D
:1011E00019684FF6FF031940044B0B4343EA0221F1
:1011F000014B196000BF70470CED00E00000FA05DC
:101200002DE9F04385B0064642A30FCB01AC0FC4D5
:1012100044A0006800904FF000080025002700243B
:10122000A146042E36D004DC012E3BD0022E6BD119
:101230005FE0082E32D0102E66D13B48446800682B
:1012400000F0807000B301A8C4F38341475C04F44C
:10125000803070B134484068C0F340401DF80080D1
:1012600004F4803040B13148B0FBF8F000FB07F5E2
:1012700002E02F4807FB00F52B48406800F480008F
:10128000B0F5800F01D1A94603E068000321B0FB4F
:10129000F1F93AE000F0D4F9814636E000F0D0F9F7
:1012A000814632E02048046A04F44070B0F5807F43
:1012B00005D104F0020010B14FF4004918E004F425
:1012C0004070B0F5007F07D11748406A00F0020077
:1012D00010B149F640490BE004F44070B0F5407F8E
:1012E00006D11148006800F4003008B1DFF84490DE
:1012F0000BE000F095F90C494968C1F38131491CB4
:101300004900B0FBF1F900E000BF00BF484605B05E
:10131000BDE8F08302030405060708090A0B0C0D5B
:101320000E0F101001020000001002400024F40013
:1013300000093D0048E80100F8B5044600260025F4
:10134000207800F0010000286BD000274348C069D6
:1013500000F0805070B900BF4048C06940F0805034
:101360003E49C8610846C06900F08050009000BF47
:1013700000BF01273A48006800F48070B0B93848CF
:10138000006840F4807036490860FFF789FE064621
:1013900006E0FFF785FE801B642801D90320F8BD15
:1013A0002F48006800F480700028F2D02B48006AB3
:1013B00000F440752DB3A08800F44070A84220D0FE
:1013C0002648006A20F44075012026490860002064
:1013D00008602248056205F0010090B1FFF760FE49
:1013E000064608E0FFF75CFE801B41F28831884228
:1013F00001D90320D3E71948006A00F00200002851
:10140000F0D01648006A20F4407061680843134920
:101410000862012F04D10846C06920F08050C861DD
:1014200000BF207800F00200022807D10B48406876
:1014300020F44040A168084308494860207800F043
:101440001000102807D10548406820F48000616929
:101450000843024948600020A1E700000010024054
:10146000007000404004424270B504460D460CB97D
:10147000012070BD5A48006800F00700A8420ED253
:101480005748006820F0070028435549086008467F
:10149000006800F00700A84201D00120E9E72078A9
:1014A00000F0020002281DD1207800F0040004287A
:1014B00005D14C48406840F4E0604A4948602078D3
:1014C00000F00800082805D14648406840F4605004
:1014D000444948604348406820F0F000A168084350
:1014E00040494860207800F0010078B36068012826
:1014F00006D13C48006800F4003090B90120B8E7FC
:101500006068022806D13748006800F0007040B9D2
:101510000120AEE73348006800F0020008B901205E
:10152000A7E73048406820F00300616808432D4970
:101530004860FFF7B5FD064609E0FFF7B1FD801BE7
:1015400041F28831884202D9032092E707E025481A
:10155000406800F00C006168B0EB810FEDD12048CD
:10156000006800F00700A8420ED91D48006820F06E
:10157000070028431A4908600846006800F0070081
:10158000A84201D0012074E7207800F0040004286C
:1015900007D11448406820F4E060E168084311492D
:1015A0004860207800F00800082808D10D484068FD
:1015B00020F46050216940EAC1000A49486000F007
:1015C0003FF808494968C1F30311074A515CC84014
:1015D0000649086006480068FFF788FD002048E7D4
:1015E000002002400010024066520008480000201F
:1015F00050000020014800687047000048000020AB
:1016000000B5FFF7F7FF04494968C1F30221034A17
:10161000515CC84000BD0000001002407652000836
:1016200000B5FFF7E7FF04494968C1F3C221034A47
:10163000515CC84000BD0000001002407652000816
:10164000F0B585B00FF26C0C9CE8E01001A8A0E8A2
:10165000E0101CA52D680095002100220023002425
:101660000020194D696801F00C05F5B1042D02D078
:10167000082D19D101E0154819E001ADC1F38346E9
:10168000AC5D01F4803555B10F4D6D68C5F3404533
:101690001DF805200D4D6543B5FBF2F302E00C4D3E
:1016A00004FB05F3184602E000BF0A4800BF00BF74
:1016B00005B0F0BD02030405060708090A0B0C0D6E
:1016C0000E0F101001020000001002400024F40070
:1016D00000093D0000127A00F8B504460CB901205B
:1016E000F8BD207800F00100002878D0F848406864
:1016F00000F00C0004280CD0F548406800F00C0005
:10170000082811D1F248406800F48030B0F5803FDD
:101710000AD1EF48006800F4003000285FD060680C
:1017200000285CD10120DBE700BF6068B0F5803F96
:1017300006D1E748006840F48030E549086028E0B9
:10174000606858B9E248006820F48030E0490860D9
:101750000846006820F4802008601AE06068B0F550
:10176000A02F0BD1DA48006840F48020D8490860E7
:101770000846006840F4803008600AE0D4480068F9
:1017800020F48030D24908600846006820F48020A8
:10179000086000BF606888B1FFF782FC054606E07C
:1017A000FFF77EFC401B642801D9032098E7C84856
:1017B000006800F400300028F2D010E0FFF770FC61
:1017C000054606E0FFF76CFC401B642801D90320A6
:1017D00086E7BF48006800F400300028F2D1207886
:1017E00000F00200022857D1B948406800F00C0010
:1017F00050B1B748406800F00C00082818D1B44830
:10180000406800F4803098B9B148006800F00200E8
:1018100020B12069012801D0012061E7AC480068AF
:1018200020F0F800616940EAC100A949086033E08E
:101830002069E8B10120A7490860FFF731FC05469F
:1018400006E0FFF72DFC401B022801D9032047E7E3
:101850009F48006800F002000028F2D09C48006811
:1018600020F0F800616940EAC1009949086013E07E
:10187000002098490860FFF713FC054606E0FFF7D3
:101880000FFC401B022801D9032029E7904800687B
:1018900000F002000028F2D1207800F008000828AB
:1018A0002DD1A069B8B101208B490860FFF7F8FB82
:1018B000054606E0FFF7F4FB401B022801D9032090
:1018C0000EE78348406A00F002000028F2D00120B1
:1018D00000F0B4FF13E000207F490860FFF7E0FB51
:1018E000054606E0FFF7DCFB401B022801D9032078
:1018F000F6E67748406A00F002000028F2D120782E
:1019000000F00400042873D100277148C06900F07A
:10191000805070B900BF6E48C06940F080506C497B
:10192000C8610846C06900F08050009000BF00BF49
:1019300001276A48006800F48070B0B96748006801
:1019400040F4807065490860FFF7AAFB054606E091
:10195000FFF7A6FB401B642801D90320C0E65F48BF
:10196000006800F480700028F2D000BFE068012811
:1019700006D15748006A40F001005549086227E047
:10198000E06858B95248006A20F0010050490862E6
:101990000846006A20F00400086219E0E0680528A3
:1019A0000BD14B48006A40F00400494908620846E0
:1019B000006A40F0010008620AE04548006A20F031
:1019C0000100434908620846006A20F004000862EA
:1019D00000BFE068A0B1FFF763FB054609E0FFF731
:1019E0005FFB401B41F28831884202D9032077E631
:1019F00022E03748006A00F002000028EFD012E031
:101A0000FFF74EFB054608E0FFF74AFB401B41F29B
:101A10008831884201D9032062E62D48006A00F02F
:101A200002000028F0D1012F05D12948C06920F01B
:101A300080502749C86100BFE069C8B324484068A6
:101A400000F00C00082860D0E069022848D100208E
:101A500020490866FFF724FB054606E0FFF720FB58
:101A6000401B022801D903203AE61948006800F01B
:101A700000700028F2D1206AB0F5803F07D11448E9
:101A8000406820F40030A168084311494860D4E957
:101A9000080108430E49496821F4741108430C49B0
:101AA000486001200B490866FFF7FAFA054607E08F
:101AB0003DE0FFF7F5FA401B022801D903200FE6AD
:101AC0000348006800F000700028F2D02FE000000A
:101AD0000010024000004242800442420070004078
:101AE000002014490866FFF7DBFA054606E0FFF719
:101AF000D7FA401B022801D90320F1E50E480068FF
:101B000000F000700028F2D111E0E069012800D156
:101B1000E6E50948466806F48031206A814204D12E
:101B200006F47011606A814201D00120D8E50020DE
:101B3000D6E50000000042420010024070B50446A5
:101B40002546681EB0F1807F01D301200FE0681E9A
:101B50004FF0E02148610F214FF0FF3001F0B0F964
:101B600000204FF0E021886107200861002070BD4F
:101B700070B504460D46164600BF94F83C00012897
:101B800001D1022070BD012084F83C0000BF36B1B5
:101B9000042E1BD0082E31D00C2E5ED145E02946F4
:101BA000206800F0C5FE2068806940F008002168C8
:101BB00088612068806920F00400216888612068BD
:101BC0008069296908432168886147E029462068BF
:101BD00000F0E6FE2068806940F4006021688861BA
:101BE0002068806920F480602168886120688069AD
:101BF000296940EA0120216888612FE02946206890
:101C000000F00CFF2068C06940F008002168C8613E
:101C10002068C06920F004002168C8612068C0699C
:101C2000296908432168C86118E02946206800F046
:101C300031FF2068C06940F400602168C8612068F5
:101C4000C06920F480602168C8612068C069296982
:101C500040EA01202168C86100E000BF00BF00BF6A
:101C6000002084F83C0000BF00BF8BE710B504469D
:101C70000CB9012010BD94F83D0028B9002084F86B
:101C80003C00204600F026F8022084F83D00211D8B
:101C9000206800F0EDFD012084F8460000BF84F8C4
:101CA0003E0001213F2001554020015541200155B2
:101CB00000BF00BF012084F84200432001554420AA
:101CC00001554520015500BF012084F83D0000204A
:101CD000D0E7000010B586B0044619492068884254
:101CE0002BD100BF00BF1748806940F0080015499C
:101CF00088610846806900F00800019000BF00BFBD
:101D000000BF00BF00BF0846C06940F00400C861C2
:101D10000846C06900F00400019000BF00BF00BF8A
:101D2000402002900220039001200490032005909F
:101D300002A90548FEF7FCFF00BF06B010BD000079
:101D40000008004000100240000C014070B504463D
:101D50000D4615B994F83E000BE0042D02D13F204A
:101D6000005D06E0082D02D14020005D01E0412029
:101D7000005D012801D0012070BD1DB9022084F84A
:101D80003E000EE0042D03D102213F20015508E062
:101D9000082D03D102214020015502E002214120FB
:101DA000015501222946206800F0B0FD1F49206836
:101DB000884203D01E492068884201D1012000E0FA
:101DC000002028B12068406C40F40040216848643D
:101DD00016492068884213D01549206888420FD0E0
:101DE0002068B0F1804F0BD012492068884207D09C
:101DF00011492068884203D01049206888420CD1DC
:101E00002068806800F00706062E0CD02068006865
:101E100040F001002168086005E02068006840F09B
:101E20000100216808600020A6E70000002C0140A6
:101E3000003401400004004000080040000C004055
:101E4000704700002DE9F0470446206805682068C7
:101E5000C668206847694FF00008C14605F00F08C2
:101E6000B8F1000F0AD105F0200038B106F02000CB
:101E700020B1204600F062FEBDE8F087B8F1000F07
:101E800071D007F0010018B906F4907000286AD0EC
:101E900005F0010030B106F4807018B1E06B40F03D
:101EA0000100E06305F0040030B107F0010018B153
:101EB000E06B40F00200E06305F0020030B107F093
:101EC000010018B1E06B40F00400E06305F0080089
:101ED00048B106F0200010B907F0010018B1E06B1E
:101EE00040F00800E063E06B68B305F0200028B123
:101EF00006F0200010B1204600F020FE2068406966
:101F0000C0F38019E06B00F0080010B9B9F1000FC0
:101F100022D0204600F0F2FD2068406900F0400029
:101F2000B0B12068406920F0400021684861606BD2
:101F300050B11848616B4863606BFEF7C3FD10B188
:101F4000606B416B88470CE02046FFF779FF08E0A3
:101F50002046FFF775FF04E02046FFF771FF0020E1
:101F6000E06389E7FFE705F0800030B106F080000C
:101F700018B1204600F0B0FE7EE705F0400030B119
:101F800006F0400018B1204600F0C8FD74E700BF1D
:101F900072E70000E92A000810B504460CB90120D8
:101FA00010BDA06900B100E000BF94F8390028B965
:101FB000002084F83800204600F028F8242084F817
:101FC00039002068C06820F400502168C8602046AD
:101FD00000F004FE2068006920F490402168086148
:101FE0002068406920F02A00216848612068C068A4
:101FF00040F400502168C8600020E063202084F88D
:10200000390084F83A000020CAE7000010B586B015
:1020100004462849206888424AD100BF00BF2648AC
:10202000806940F00400244988610846806900F016
:102030000400019000BF00BF00BF00BF00BF084602
:10204000806940F0040088610846806900F004005F
:10205000019000BF00BF00BF00BF00BF08468069FD
:1020600040F4804088610846806900F48040019017
:1020700000BF00BF00BF481502900220039001205E
:1020800004900320059002A90C48FEF751FE4FF47E
:10209000806002900020039002A90848FEF748FEE5
:1020A0002520FFF74AF8032211462520FFF755F8AF
:1020B00006B010BD00380140001002400008014089
:1020C00010B5034693F83A0020282FD101B10AB980
:1020D000012010BD00BF93F83800012801D1022073
:1020E000F7E7012083F8380000BF99629A85DA8506
:1020F0000020D863222083F83A0000BF002083F834
:10210000380000BF1868C06840F480701C68E06048
:102110001868406940F001001C6860611868C06878
:1021200040F020001C68E0600020D2E70220D0E7E9
:102130001D4A0168914236D11C49098801F40041C9
:1021400089BB1A49098801F4804171B1184909789D
:102150000A2903D00021154A118024E01349098877
:1021600041F40041114A11801DE0114909780D29FF
:1021700006D10E49098841F480410C4A118012E0D1
:102180000B490978094A1288C2F30D02094B995488
:1021900006490988491C054A118011460988C72942
:1021A00001DD0021118070470038014060000020EF
:1021B00062000020EC000020704700BFFEE72DE920
:1021C000F04104460D4616461F462A2000F0F0FA5C
:1021D00004F1280188B200F0DBFA06F1280188B288
:1021E00000F0D6FA2B2000F0E3FA05F1340188B2B2
:1021F00000F0CEFA07F1340188B200F0C9FA2C20C1
:1022000000F0D6FABDE8F0812DE9FF4F85B0814698
:102210008A460020039083460798A0EB090508989A
:10222000A0EB0A06CDF80890CDF804A0002D01DD42
:10223000012705E00DB9002702E04FF0FF376D429E
:10224000002E02DD4FF0010806E016B94FF000083D
:1022500002E04FF0FF387642B54201DD2C4600E047
:102260003446002004901EE0019A91B2029A90B286
:10227000129A00F01FF8039828440390B34403987F
:10228000A04205DD0398001B039002983844029099
:10229000A34504DDABEB040B019840440190049886
:1022A000401C80B20490611C04988842DCDB09B0B9
:1022B000BDE8F08F70B504460D4616462B46224603
:1022C00029462046FFF77BFF304600F061FA70BDDB
:1022D0002DE9F84305460E4617469846089C3346B6
:1022E0003A46314628460094FFF78EFF43462A4679
:1022F000314628460094FFF787FF43463A46414659
:1023000028460094FFF780FF43463A463146384658
:102310000094FFF779FFBDE8F8832DE9F047064602
:102320000F4614461D46DDF820A0681E83B2601ECD
:1023300082B239463046FFF742FFB8460EE0B1465A
:1023400006E0504600F024FA09F101001FFA80F976
:10235000A145F6DB08F101001FFA80F8A845EEDB85
:10236000BDE8F08700B585B000BF00BF0F488069A9
:1023700040F004000D4988610846806900F00400BF
:10238000009000BF00BF00BF3F20019001200290DD
:102390000320049001A90648FEF7CAFC01223F2150
:1023A0000348FEF777FE05B000BD000000100240B4
:1023B0000008014010B5FFF7D5FF0022042167484F
:1023C000FEF768FE642000F0DFFE0122042163486E
:1023D000FEF760FE642000F0D7FE002220215F4857
:1023E000FEF758FE642000F0CFFE112000F0E0F967
:1023F000782000F0C9FE362000F0DAF9A02000F0C5
:10240000D0F93A2000F0D4F9052000F0CAF9B22042
:1024100000F0CEF90C2000F0C4F90C2000F0C1F956
:10242000002000F0BEF9332000F0BBF9332000F0AB
:10243000B8F9B72000F0BCF9352000F0B2F9BB20A4
:1024400000F0B6F9192000F0ACF9C02000F0B0F9A6
:102450002C2000F0A6F9C22000F0AAF9012000F01B
:10246000A0F9C32000F0A4F9122000F09AF9C420CA
:1024700000F09EF9202000F094F9C62000F098F9B1
:102480000F2000F08EF9D02000F092F9A42000F087
:1024900088F9A12000F085F9E02000F089F9D0202A
:1024A00000F07FF9042000F07CF90D2000F079F9AC
:1024B000112000F076F9132000F073F92B2000F0C2
:1024C00070F93F2000F06DF9542000F06AF94C20BB
:1024D00000F067F9182000F064F90D2000F061F9B0
:1024E0000B2000F05EF91F2000F05BF9232000F0C4
:1024F00058F9E12000F05CF9D02000F052F90420F6
:1025000000F04FF90C2000F04CF9112000F049F9CF
:10251000132000F046F92C2000F043F93F2000F092
:1025200040F9442000F03DF9512000F03AF92F2005
:1025300000F037F91F2000F034F91F2000F031F9C6
:10254000202000F02EF9232000F02BF9212000F0AC
:102550002FF9292000F02CF910BD000000080140DF
:102560002DE9FF5F80468A4617469B460F9D002057
:102570000290CDF80080284605EBD071C1F34704E6
:102580002046E21704EB5272D2102146E31704EB07
:102590005373DB10A4EBC3030BB1012300E0002352
:1025A0001A446A4392B20192A7F12000C7B20AEB23
:1025B0000500401E83B208EB0400401E82B2514663
:1025C0004046FFF7FCFD002669E00C2D07D107EB24
:1025D0004700354901EB8000805D03901BE0102D22
:1025E00005D1324800EB0710805D039013E0182DF1
:1025F00007D107EB47002E4901EB0010805D0390E7
:1026000009E0202D05D12B4800EB8710805D039059
:1026100001E0BDE8FF9F4FF000093AE01098C8B90B
:10262000012000FA09F00399084018B1584600F05B
:10263000AFF802E00E9800F0ABF80298401CC0B270
:102640000290029890FBF4F104FB1100E8B900201D
:10265000029021E0012000FA09F00399084020B11E
:102660005A4651464046FFF725FE08F101001FFA81
:1026700080F80098A8EB0000A04206D1DDF80080A9
:102680000AF101001FFA80FA06E009F1010000F0EA
:10269000FF09B9F1080FC1DB00BF701C86B20198B9
:1026A000864292DB00BFB4E77E520008F256000873
:1026B000E25C0008B26E00082DE9FF4F85B00746C6
:1026C00091461D46DDE913A600200490304606EB36
:1026D000D071C1F3470B002434E0281B401EC1B267
:1026E0000A2001F0BDFAB9FBF0F00A21B0FBF1F2CB
:1026F00001FB12080498A0B9681EA04211DDB8F1D0
:10270000000F0CD1002004FB0B71CDE900A6029054
:1027100088B22022129B0699FFF722FF10E00120C9
:102720000490002008F13001CAB204FB0B71CDE91E
:1027300000A6029088B2129B0699FFF711FF00BF16
:10274000601C84B2AC42C8DB09B0BDE8F08F2DE953
:10275000FE4F06460F4614469846DDE90D5ADDF851
:10276000309010E0CDE9015ACDF800902278434630
:1027700039463046FFF7F4FE284605EBD07106EBEC
:1027800061018EB2641C20780028EBD1BDE8FE8F79
:1027900010B50446201200F01DF8E0B200F01AF85F
:1027A00010BD10B50446204600F014F810BD00001E
:1027B00010B50446002208210548FEF76BFC2046B0
:1027C00000F008F8012208210148FEF763FC10BD63
:1027D0000008014070B50446002210211448FEF79D
:1027E00059FC00251BE0002201211148FEF752FC94
:1027F00004F0800028B1012202210D48FEF74AFCB6
:1028000004E0002202210A48FEF744FC012211469E
:102810000748FEF73FFC6006040E681CC5B2082D91
:10282000E1DB012210210248FEF734FC70BD0000FC
:102830000008014000BFFEE77047704708B508492F
:102840000968C9084FF47A72B1FBF2F14143009173
:1028500000BF00BF00994A1E00920029F9D108BDAF
:1028600048000020704710B5FEF720FC10BD0000A6
:1028700010B50268204B98420ED0204B98420BD0E6
:10288000B0F1804F08D01E4B984205D01D4B9842A6
:1028900002D01D4B984203D122F070024B681A43BC
:1028A000154B98420ED0154B98420BD0B0F1804F8B
:1028B00008D0134B984205D0124B984202D0124BCD
:1028C000984203D122F44072CB681A4322F080036D
:1028D0004C6943EA040202608B68C3620B6883623E
:1028E000054B984202D0054B984201D10B69036316
:1028F0000123436110BD0000002C01400034014061
:102900000004004000080040000C004030B501F019
:102910001F05012404FA05F3046A9C430462046A57
:1029200001F01F0502FA05F52C43046230BD0000DA
:1029300030B5056A25F001050562026A43688469BD
:1029400024F0700424F003040D682C4322F00202EA
:102950008D682A43104DA84200D103E00F4DA842D4
:1029600006D100BF22F00802CD682A4322F00402FB
:10297000094DA84202D0094DA84207D123F4807323
:1029800023F400734D692B438D692B4343608461AD
:102990004D684563026230BD002C014000340140A7
:1029A00030B5056A25F010050562026A436884693E
:1029B00024F4E04424F440740D6844EA052422F031
:1029C00020028D6842EA0512124DA84200D103E0B0
:1029D000114DA84207D100BF22F08002CD6842EA23
:1029E000051222F040020B4DA84202D00A4DA84227
:1029F00009D123F4806323F400634D6943EA85031E
:102A00008D6943EA8503436084614D688563026292
:102A100030BD0000002C01400034014030B5056A93
:102A200025F480750562026A4368C46924F0700465
:102A300024F003040D682C4322F400728D6842EAEE
:102A40000522124DA84200D103E0114DA84207D142
:102A500000BF22F40062CD6842EA052222F48062BF
:102A60000A4DA84202D00A4DA84209D123F480534E
:102A700023F400534D6943EA05138D6943EA0513B6
:102A80004360C4614D68C563026230BD002C0140E3
:102A90000034014030B5056A25F480550562036AAB
:102AA0004468C26922F4E04222F440720D6842EAAE
:102AB000052223F400538D6843EA0533084DA842EC
:102AC00002D0084DA84204D124F480444D6944EA60
:102AD00085144460C2614D680564036230BD000026
:102AE000002C01400034014070B505466C6A00209E
:102AF000E085E0842046FFF7A3F970BD0168C9684E
:102B000021F490710268D1600168496921F00101E6
:102B100002685161202180F83A10704710B50446D0
:102B20002068C06820F040002168C860202084F838
:102B300039002046FFF740FB002010BD70B5044669
:102B400094F83A00222847D1A068B0F5805F0CD1F4
:102B5000206950B90025A66A20684068C0F30800C3
:102B60003080A06A801CA06215E0A56A0026A068DB
:102B7000B0F5805F03D0A06828B9206918B9206833
:102B80004068287004E02068406800F07F002870EA
:102B9000A06A401CA062E08D401E80B2E085C8B9EA
:102BA0002068C06820F020002168C8602068C068E4
:102BB00020F480702168C8602068406920F001001E
:102BC00021684861202084F83A002046FFF7B0FAD7
:102BD000002070BD0020FCE70220FAE770B5044633
:102BE0002168096921F44051E268114322681161AA
:102BF0002269A1681143626941EA02052168C96836
:102C000041F20C62914329432268D16021684969ED
:102C100021F44071A2691143226851612D4A216853
:102C2000914202D1FEF7FCFC01E0FEF7E9FC00EB6B
:102C3000C00101EB001162689200B1FBF2F100EB00
:102C4000C00202EB001263689B00B2FBF3F2642344
:102C5000B2FBF3F202EBC20303EB0212A1EB82011F
:102C6000322202EB01116422B1FBF2F101F0F0011A
:102C700000EBC00202EB001263689B00B2FBF3F2B0
:102C80006423B2FBF3F201EB021200EBC00101EB93
:102C9000001163689B00B1FBF3F100EBC00303EB91
:102CA00000136668B600B3FBF6F36426B3FBF6F3D5
:102CB00003EBC30606EB0313A1EB8301322303EB03
:102CC00001116423B1FBF3F101F00F0111442268FB
:102CD000916070BD00380140014691F8390021280B
:102CE00028D18868B0F5805F0BD1086948B90A6AB5
:102CF0001088C0F308000B685860086A801C0862DE
:102D000005E00B6A581C086218780B685860C88C7C
:102D1000401E80B2C88458B90868C06820F080009E
:102D20000B68D8600868C06840F040000B68D86045
:102D3000002070470220FCE710B50648FFF782F834
:102D400000BF012204490348FFF7BAF90028F8D16F
:102D500010BD0000B40100206200002000BFFEE7AB
:102D600030B503460C461546A34203DD18462346FC
:102D7000044600BF1B2B00DB30BD1B2C00DB1A24DC
:102D800008E003EB4301054A88182946FDF7F2FAEB
:102D9000581C83B2A342F4DD00BFEDE76C020020B3
:102DA00000B585B000BF00BF0F48806940F0040047
:102DB0000D4988610846806900F00400009000BF5A
:102DC00000BF00BF4815019001200290039003202E
:102DD000049001A90548FDF7ABFF01225102034809
:102DE000FEF758F905B000BD001002400008014090
:102DF00010B5002407E004EB4401044A881800F0F1
:102E00004BF8601CC4B21B2CF5DB10BD6C0200201B
:102E100000B500213BE000F08002D2B14FF4007217
:102E20001C4B1A60FDF7AEFA4FF40072194B1B1DD4
:102E30001A6000BF00BF00BF00BF00BF00BF00BFDF
:102E400000BF00BF00BF00BF00BF00BF00BF00BF8A
:102E500019E04FF400720F4B1A6000BF00BF00BFB3
:102E600000BF00BF00BF00BF00BF00BF00BF00BF6A
:102E700000BF00BF00BF00BF4FF40072054B1B1D19
:102E80001A60FDF77FFA4206100E4A1CD1B20829DB
:102E9000C1DB00BD1008014010B504462078FFF7E3
:102EA000B7FF6078FFF7B4FFA078FFF7B1FF10BD60
:102EB00002480068C0F30220704700000CED00E0FB
:102EC00010B5002804DB0A07130E054A135406E068
:102ED0000A07140E034A00F00F031B1FD45410BD41
:102EE00000E400E018ED00E02DE9F0414F1E00EB9A
:102EF000C7010446D1E9000115461E4637F0060217
:102F00000DD02A46334601F0F5FC7F1E04EBC703C3
:102F1000D3E9002301F008FA37F00602F1D1022FBD
:102F200025D0042F13D0062F18BFBDE8F0812A4604
:102F3000334601F0DFFCD4E90A2301F0F5F92A4613
:102F4000334601F0D7FCD4E9082301F0EDF92A4615
:102F5000334601F0CFFCD4E9062301F0E5F92A4617
:102F6000334601F0C7FCD4E9042301F0DDF92A4619
:102F7000334601F0BFFCD4E9022301F0D5F92A461B
:102F8000334601F0B7FCD4E90023BDE8F04101F07D
:102F9000CBB90000002213461046014901F080BA67
:102FA0000000F03F012202F018B90022134610463B
:102FB000114601F075BA00BF7047000010B500243B
:102FC000012211021048FEF765F80521082000F0E3
:102FD00043F80446C82C05D300200C490872084663
:102FE00004600FE000224FF480710748FEF752F8AA
:102FF0000521082000F030F804460120034908723A
:103000000846446010BD000000080140B8000020E0
:10301000FEB507460C4615461E46009401950296DD
:1030200069463846FDF758FAFEBD000010B5044663
:103030000723012221460748FFF7EAFF0548FDF76D
:10304000A9FC0A210348FDF7EDFB0248FDF7F4FA5D
:1030500080B210BD3C0200202DE9F04107460C462D
:103060000025002608E03846FFF7E0FF054405206C
:1030700000F08AF8701CC6B2A642F4DBB5FBF4F08F
:10308000BDE8F08110B50B480B490860002048608E
:10309000002109488160017301210161002101754E
:1030A00081614FF46021C161FDF7CAFA0248FDF762
:1030B00091F910BD002401403C02002000B585B00C
:1030C00000BF00BF1048806940F004000E498861CD
:1030D0000846806900F00400009000BF00BF00BFF8
:1030E000402001900120029003900320049001A948
:1030F0000648FDF71DFE00BF002240210348FDF7F2
:10310000C9FF00BF05B000BD00100240000801402B
:103110007C2014494870FC200870002088708720AB
:1031200011494870CE200870FA2088709A200F4903
:103130004870CD20087032208870FF200C494870FC
:10314000087000208870FF200A49487061200870CC
:1031500000208870FF20084948700020087088709F
:1031600070470000280000202B0000202E000020C7
:1031700031000020340000203700002001490860A1
:10318000704700005800002010B504464FF47A71D3
:1031900004FB01F000F002F810BD000070B503461A
:1031A00000224FF0E02675690D4E366803FB06F4E9
:1031B0004FF0E026B16910E04FF0E026B069884298
:1031C0000BD0884202D20E1A324402E02E1A0E446C
:1031D00032440146A24200D300E0EDE700BF70BDDB
:1031E000580000201CB503204FF6FF718523EE2206
:1031F000CDE900100221084600F035F803204FF613
:10320000FF73EE222D210090022000F013F803201E
:103210004FF6FF73EE225A210090022000F00AF8C8
:1032200003204FF6FF738522022100905A2000F000
:103230003EF81CBD2DE9F84307460D4690461E4654
:10324000DDF8209000240AE0281983B2281981B201
:10325000424638460096FEF7D7FF601CC4B24C4584
:10326000F2DBBDE8F8832DE9F84F05460E46174618
:103270009846DDE90A9A002415E0A8EB040C1FFA31
:103280008CF3A7EB040C1FFA8CF206EB040C1FFA6C
:103290008CF105EB040C1FFA8CF0CDF80090FFF7D1
:1032A00017F8601CC4B25445E7DBBDE8F88F2DE980
:1032B000F8430546884616461F46DDF82090002450
:1032C0000AE029198AB2291988B233464146009783
:1032D000FEF79AFF601CC4B24C45F2DBBDE8F883F0
:1032E00000B585B000BF00BF1148806940F00800FC
:1032F0000F4988610846806900F00800009000BF0F
:1033000000BF00BF4FF4C04001900A480290012066
:10331000039001A90848FDF70BFD02221146282061
:10332000FDF71BFF2820FDF708FF05B000BD0000DA
:103330000010024000002110000C014000B585B0D3
:1033400000BF00BF1048806940F004000E4988614A
:103350000846806900F00400009000BF00BF00BF75
:10336000802001900120029003900320049001A985
:103370000648FDF7DDFC00BF002280210348FDF771
:1033800089FE00BF05B000BD0010024000080140EA
:1033900010B502463C2392FBF3F403FB1423D8B28E
:1033A0000C2809DAFF234B70C0EBC00303EB430387
:1033B0000B7000238B7038E018280DDAA0F10C0395
:1033C000C3EBC30303EB4303C3F1FF034B70FF23C2
:1033D0000B7000238B7028E024280BDA00234B703D
:1033E000FF230B70A0F11803C3EBC30303EB4303EC
:1033F0008B701AE030280DDA00234B70A0F1240303
:10340000C3EBC30303EB4303C3F1FF030B70FF23C1
:103410008B700AE0A0F13003C3EBC30303EB43035B
:103420004B7000230B70FF238B7010BD2DE9F05FF4
:1034300004460D4600BF164A164B2046294601F0A9
:1034400057FB01D8124C134D134A144B2046294602
:1034500001F014FA01D8104C104D4FF06632104BA9
:103460002046294601F07AFB8046894600220D4B12
:103470002046294601F03EFA824642464B4601F07C
:103480000FF806460F4630463946BDE8F09F00006B
:1034900052B81E85EB510A40FCA9F1D24D62503F53
:1034A00066660A4000BDFF4030B587B004460D4651
:1034B0001C216846FCF783FE0E480F490860084649
:1034C000456000218160C460FEF7D0FB6020009061
:1034D000204604EBD0714910019102200290002295
:1034E00069460548FEF744FB00210348FEF72EFC21
:1034F00007B030BD00080040F401002000B585B0E1
:1035000000BF00BF0E48806940F008000C49886188
:103510000846806900F00800009000BF00BF00BFAF
:103520004FF4E0400190002002900120039003201E
:10353000049001A90348FDF7FBFB05B000BD0000A6
:1035400000100240000C014000B585B000BF00BF74
:103550001148806940F008000F4988610846806979
:1035600000F00800009000BF00BF00BF4FF4004013
:1035700001900120029003900320049001A90748C4
:10358000FDF7D6FB00BF0122D1030448FDF782FD01
:1035900000BF05B000BD000000100240000C01405B
:1035A0002DE9F04DC84A002490B0914205DA21F08F
:1035B0000043934201D805D120B110B0BDE8F04DD1
:1035C000FFF7F0BCB1F5801F1BDA53EA000209D007
:1035D000002911DA0120FCF722FE10B0BDE8F04D01
:1035E000FFF7E3BC0220FCF71AFEFFF7D3FC10B094
:1035F00081F00041BDE8F08D6FF03504362201F016
:10360000ECFD04EB2152C1F31308B049A2F2FF33E1
:10361000414401F4801282F07F6103EB225281F079
:103620004051009241EA08010022A94B01F0A2FAA0
:10363000044608F10200A74EC0F313000D467E4475
:10364000032867D2D6E90023204601F081F81ED175
:103650000098002802BFD6E9000110B0BDE8F08D47
:1036600001F0E1F807460C469B4A9C4B01F042F9F9
:1036700006460D469A4A9B4B3846214601F03AF9D8
:1036800010B032462B46BDE8F04D00F04DBE4FF075
:103690005532954B2046294601F02CF90022934BD8
:1036A00001F05CFA06460F4622462B4610461946A4
:1036B00001F020F932463B4601F01CF9064600981D
:1036C0000F46F0B101F0AFF880468A46824A834B3C
:1036D00001F010F932463B4601F040FA22462B46F3
:1036E00001F048FA05460C467D4A7E4B404651465D
:1036F00001F000F910B02A462346BDE8F04D01F074
:1037000039BA0B4610B0324620462946BDE8F04D86
:1037100001F030BA00224FF08043204600F004FE52
:1037200002460B462046294600F0BAFE06460F46E2
:10373000009801F078F8CDE9040132463B46104686
:10374000394601F0D7F80C9069480C9A4044019032
:1037500009910B46104601F0CDF8824602466548B5
:103760008B46C8F151080B4608F5D7280321784449
:10377000FFF7BAFB52465B4601F0BCF80A905E4880
:103780000D9152465B4604217844FFF7ADFB099B3F
:103790000C9A01F0AFF8844601980D9B40EA0808A6
:1037A00060460A9A00F0C0FD83460891B8F1000F08
:1037B0004EDD4FF0FF322046294601F00EFD224635
:1037C0002B4601F097F8804600988A4660B3DDE901
:1037D0000401414A414B01F08DF8099100905A468D
:1037E00040465146089B00F09FFD32463B4601F0A3
:1037F00081F8099B009A00F097FD4246534601F07C
:10380000ADF922462B4601F0B5F904460D46DDE937
:103810000401334A334B01F06DF810B022462B46B9
:10382000BDE8F04D01F0A6B95A464046089B00F0AD
:103830007BFD32463B4601F05DF84246534601F0BF
:103840008DF910B022462B46BDE8F04D01F086B947
:10385000009840B3DDE904011F4A204B01F04AF80B
:1038600080468A465A4620462946089B01F082F93E
:1038700032463B4601F03EF84246534601F07AF9A3
:1038800022462B4601F076F904460D46DDE9040197
:10389000134A144B01F02EF810B022462B46BDE817
:1038A000F04D01F067B90B465A462046294601F013
:1038B00061F932463B4601F01DF810B022462B4616
:1038C000BDE8F04D01F04AB90000F07F645F0900E7
:1038D0000000F03F96550000763C7935EF39EA3D1F
:1038E0000000E0FE422EE63F5555D53F0000E03F88
:1038F00086EBF9FF2E5400002C5400001FB500BFCA
:1039000000BFFDF7DFFB4FF4002000F021FC482052
:10391000FFF734FC4FF4E13000F0B8FCFFF714FE81
:10392000472140F2F310FFF7BFFD4FF4FA709949B9
:1039300009684863FFF7C2FBFFF700FDFFF7DEFDF4
:1039400000F086FBFFF7CCFCFFF79CFBFEF732FD97
:1039500000208723F02201460090FEF7DEFCFFF7EF
:1039600041FC00202021CDE9000147F6FF738AA227
:103970000A2102900846FEF7EAFE00202021CDE948
:10398000000147F67C5386A2352102900A20FEF7FB
:10399000DEFE00202021CDE900014FF4FC6382A26D
:1039A000602102900A20FEF7D2FEFFF7F9F9FFF737
:1039B000AFFB00F029F900BF002280217C48FDF711
:1039C00069FB00BF7B4A3C210020FFF7C9F9FFF7E4
:1039D0000FFADEE0FFF7F2FA7748007AA0B97648EE
:1039E000008880B20390039800F034FF80464FF0C7
:1039F0006632724B00F07EFF82460022704B00F070
:103A00004FFD06460F4619E06B48808880B2039050
:103A1000039800F01FFF80464FF06632674B00F0BE
:103A200069FF82460022664B00F03AFD0022654B9A
:103A3000CDE9000100F034FD06460F463046394618
:103A4000FFF7F4FC04460D4600225F4B2046294652
:103A500000F014FF06D300225C4B2046294601F0FB
:103A600047F80FD200225A4B2046294600F006FFA5
:103A700006D30022574B2046294601F039F801D2DF
:103A80000024554D2046294600F05EF9534A03C2F2
:103A90000022534B514903C900F0F0FE06D3002227
:103AA000504B4E4903C901F023F803D200204E4980
:103AB0004A4A03C2494903C900F0EEFA474A03C221
:103AC00000224A4B454903C900F0D8FE15D8FDF73E
:103AD000E7FA47490968401A14280ED9FDF7E0FAB9
:103AE0004349086043480078401C42490870084632
:103AF00000783C2801DB0020087000F05DFBFDF73A
:103B0000CFFA3D490968401AC8280AD9FDF7C8FA12
:103B10003949086000BF4FF400413848FDF7B0FA5A
:103B200000BF37480078012819D14FF4FA701949BD
:103B30000968486300222D4B284903C900F0D8FFCB
:103B400006D200BF012280211948FDF7A3FA1DE02B
:103B500000BF002280211648FDF79CFA16E0284895
:103B60000078022812D100BF002280211048FDF702
:103B700091FA00BF00F080F822480068006A00EB6C
:103B80008000C0F5FA700349096848630A20FFF70E
:103B9000FBFA1FE7F4010020535441543A0000009F
:103BA0005345543A0000000054454D503A0000007F
:103BB0000008014028000020B800002066660A4086
:103BC0000000B0400000354000005940D012534181
:103BD00000002440D01263414081F64010000020D4
:103BE000000059C000C0824000003940000044403D
:103BF000200000201C00002024000020000C0140B8
:103C00000400002008000020002011490968C86055
:103C10000F49096808610E49096848610C4909683B
:103C200088610B490968C86109490968086264200C
:103C30000749096848620748054909680860064855
:103C40000349096848600548014909688860704768
:103C5000080000209A99993E0AD7233CCDCC4C3DD0
:103C600010B50246012000E050430B1EA1F10104F3
:103C7000E1B2F9D110BD00002DE9F0412F480068F4
:103C8000C0682E49096808612D48008800F0E2FDEF
:103C900006462C480CC8304600F06CFF044600F085
:103CA00011FB26490968C860244A12681168234A32
:103CB0001268D06801F01EF92049096848611F4A5E
:103CC000126811691D4A1268D06801F0DFF90446D4
:103CD0001A4800688168204601F00CF91749096804
:103CE000C861164A1268D169144A1268506901F015
:103CF0002BF8044601F096F81049096808620F494C
:103D00000968486A01F0AAF804460C480068C169CD
:103D1000204601F0BBF806D208480068406A07490F
:103D20000968086208E005480068006A002803DAAC
:103D30000020024909680862BDE8F08108000020FF
:103D40000C000020100000202DE9FF5F06460F4602
:103D500000BF002213463046394600F08FFD01D8DF
:103D60000026274F0022274B3046394600F0C0FE80
:103D700001D20026234F00BF00BF00BF0022224B0C
:103D80003046394600F08CFBCDE90201FFF708FC14
:103D90008046894600221D4B4046494600F080FB84
:103DA0001B4A1C4BCDE9000100F0BEFA02460B464F
:103DB000CDE902010020124900F072FB82468B46D9
:103DC0004FF06632144B5046594600F0D3FE04467D
:103DD0000D460022114B2046294600F04FFD01D22E
:103DE00000240E4D00220E4B2046294600F080FE96
:103DF00001D200240A4D2046294604B0BDE8F09FB8
:103E00000000F03FD01263414081F64000DCAE403C
:103E100083DBB5DCE1796B3F66127140000049C07D
:103E200000407F40F8B57A480078012808D1002288
:103E3000784B794903C900F021FD01D800244DE0F9
:103E400073480078022808D10022724B724903C9D6
:103E500000F014FD01D2012440E000226D4B6E49B8
:103E600003C900F045FE08D800226C4B6A4903C91B
:103E700000F004FD01D8022430E00022674B6649BF
:103E800003C900F035FE08D20022654B624903C920
:103E900000F0F4FC01D8032420E00022604B5E49CE
:103EA00003C900F025FE08D200225E4B5A4903C91F
:103EB00000F0E4FC01D8042410E00022594B5649DC
:103EC00003C900F015FE08D20022574B524903C91E
:103ED00000F0D4FC01D8052400E006245348007803
:103EE000844204D0514804700120514908704F4861
:103EF000007807287ED2DFE800F004273543515FC1
:103F00006D004B48007800B900BF002514E0494817
:103F1000007828443C2190FBF1F201FB1200C6B26C
:103F200069463046FFF734FA05EB4501424A8818E6
:103F30006946FCF71FFA6D1C3C2DE8DBFEF758FFC5
:103F400000203B49087060E03948007848B13B4A9E
:103F50003C210020FEF704FFFEF74AFF0020344911
:103F6000087052E03248007848B1354A3C210020C0
:103F7000FEF7F6FEFEF73CFF00202D49087044E0F6
:103F80002B48007848B12F4A3C210020FEF7E8FE7C
:103F9000FEF72EFF00202649087036E024480078FE
:103FA00048B1294A3C210020FEF7DAFEFEF720FF47
:103FB00000201F49087028E01D48007848B1234AB6
:103FC0003C210020FEF7CCFEFEF712FF002018492E
:103FD00008701AE016480078A8B180208DF801001A
:103FE00000208DF8000080208DF802006A463C21F8
:103FF000002000E008E0FEF7B3FEFEF7F9FE002027
:104000000B49087000BF00E000BF00BFF8BD000012
:1040100004000020000044401000002000805140B7
:104020000000594000C062400000694002000020CA
:10403000030000201C0000206C0200202B00002048
:104040002E00002031000020340000203700002026
:1040500000B585B000BF00BF0D48806940F0040086
:104060000B4988610846806900F00400009000BF99
:1040700000BF00BF8815019001200290039003202B
:10408000049001A90348FCF753FE05B000BD0000F1
:1040900000100240000801402DE9F04704460D469B
:1040A00026482749097800EBC100D0E90083424641
:1040B000244903C900F05EFD224A03C21F4820497B
:1040C000097800EBC10030C01E480CC820462946C4
:1040D00000F02AF91B4A03C219480078401C18490D
:1040E0000870084600780A2804DB002008700120C8
:1040F000154908701448007840B10022134B11494B
:1041000003C900F0CDF906460F4612E00C490978C4
:1041100009B90A2101E00A490978084600F083FB41
:10412000804642460B46074903C900F0B9F90646E6
:104130000F4630463946BDE8F08700006800002091
:10414000000000204000002001000020000024406A
:1041500030B58FB005460124282105A8FCF72FF8BB
:1041600014216846FCF72BF8012005900004069006
:104170000020079002200C90C1030D910E9505A818
:10418000FDF7AAFA04460CB100BFFEE70F2000902D
:1041900002200190002002904FF4806003900020E4
:1041A000049002216846FDF75FF904460CB100BF98
:1041B000FEE70FB030BD00003EB52E480078012864
:1041C0000CD100202021CDE9000147F6FF732AA27F
:1041D0000A2102906420FEF7BAFA0FE02548007821
:1041E00002280BD100202021CDE9000147F6FF7302
:1041F00022A20A2102906420FEF7A9FA20200021C1
:1042000047F67C520323CDE9002102901C48028826
:1042100035216420FEF750FA00202021CDE900016D
:1042200047F67C5317A2352102909420FEF78FFAAF
:10423000154903C900F0C8FA84B2202000214FF4C8
:10424000FC620323CDE90021029022466021642014
:10425000FEF732FA00202021CDE900014FF4FC6383
:1042600008A2602102909420FEF771FAFFF7DAFDB0
:104270003EBD0000040000204F4646004F4E200087
:104280000C000020204300001000002010B5044660
:1042900009480A4908600846446000218160C160FD
:1042A000016181610C214161FDF776FE0122044923
:1042B0000248FDF705FF10BD00380140B4010020A1
:1042C0006200002021F00042A2F16052B2F5801F8E
:1042D00001F0004328BFD2F17F6C0BD95FEA001CCC
:1042E00043EAC20242EB507018BF704728BF20F06B
:1042F00001007047B2F5801FBCBF184670474FEAF7
:10430000410C1CF5001F02D2084600F0BABE70B581
:1043100000F09AFB00000089FFF7F6BF4FF0004065
:10432000A0F580007047000010B591EA030F48BF68
:1043300083F0004300F12684841A71EB030C05D24C
:10434000121943EB0C03001B61EB0C01DFF824E1B5
:104350004FEA1154A4EB135C1EEA430F18BF9EEA08
:10436000445F73D023EA0E03DCF1200E21EA0451EE
:1043700043F4801332D322FA0CFE10EB0E0023FA22
:104380000CFE41EB0E01CCF1200E03FA0EFE10EBF9
:104390000E0051F10001B1F5801FCCF1200E32D298
:1043A00001EB045112FA0EF2BDE8104058BF7047FD
:1043B000401C38BF5FEA420218BF7047002814BF94
:1043C00020F0010041F100014FEA410313F5001F05
:1043D00038BF7047A1F1C04100F084BB012A43EB14
:1043E0000302ACF1200CDCF11F0E32BF4FF0000EC7
:1043F00023FA0CF310EB030041EB0451B4EB115F13
:10440000D0D0A1EB045101F5801149085FEA3000DA
:1044100001EB04510ED350F1000038BF12FA0EFE2A
:1044200008D1BDE81040C9E7401C38BF5FEA42022E
:10443000CAD1C3E7BDE810404FEA410313F5001F9E
:1044400038BF7047A1F1C04100F04CBB9EEA445F09
:1044500008D011EA5E0FBDE8104004BF01F0004132
:1044600000207047BDE8104070B500F0EDFA00BFC5
:1044700064FBBE3E0000E0FF02494FF0000000F088
:104480007ABE00BF0000F87F491058BFC1F140411B
:104490005B1058BFC3F140438B42EFF3008070477D
:1044A0002DE9C04130B4DFF8A0C23CEA111418BFB6
:1044B0003CEA131400F0EC8081EA03051CEA1114B5
:1044C00044EAD57418BF1CEA131500F0C780A4EBAA
:1044D00005044FF0004545EAC12145EAC32341EAFE
:1044E000505143EA525304F17F74994204F5003469
:1044F0004FEAC0204FEAC22208BF904200F09C80E1
:104500004FEA13650FF24016765D4FEA134506FB3E
:1045100005F7C7F1807706FB07F74FEAD737A7FB08
:1045200003687642C8F58038A7FB06CE38BFA8F1ED
:10453000010807FB08E64FF0000EA6FB028CE6FB25
:1045400003CEDCF1000CCEF1004E38BFAEF1010E0F
:10455000A6FB0C584FF000074FF00005E6FB0E8756
:10456000A1FB08C6A0FB07CE16EB0E0645F1000521
:10457000E1FB076515F1E04E7EBFA4F580345FEAEC
:1045800046066D4116F1800745F100054FEA1727F1
:104590004FEA066647EA0567A6F1DE46B6F1805F98
:1045A0004FEA15251FD9384624F0010C05EBC471DC
:1045B000BCF1FE6F01EB0C1102D8F0BCBDE800812C
:1045C00024425CBF01F5801E9EEAC47F02D4F0BC89
:1045D000BDE80081244238D4F0BCA1F1C041BDE85F
:1045E000004100F07FBA4FEAD22242EA43524FEA3A
:1045F000D323A7FB02864FEAD02040EA415007FBB5
:1046000003661EEA0E0F4FEAD12105FB026658BF72
:10461000A6EB0056B6EB00564FEA520E4EEAC37EAA
:1046200018EB0E0E56EB530EBDD518EB02085E418B
:104630007F1C55F10005B6E74FF480154FF00007D9
:104640004FF000064FF00008ADE7F0BC4FF000005F
:1046500001F1C04101F00041BDE8008111EA0C1FE9
:104660000CEA131500D00CE013EA0C1F00F02580B3
:104670004FF00000F0BC81EA030101F00041BDE809
:104680000081F0BCBDE8004181EA030100F02ABAD4
:10469000F0BCBDE8004170B500F0D6F9097EFC3EE3
:1046A00000F007B881EA03014FF0000001F000417B
:1046B000704781EA030100F015BAF0BCBDE8004183
:1046C0004FF0000021497047FFFDFBF9F7F5F4F2C8
:1046D000F0EEEDEBE9E8E6E4E3E1E0DEDDDBDAD89D
:1046E000D7D5D4D3D1D0CFCDCCCBCAC8C7C6C5C4FB
:1046F000C2C1C0BFBEBDBCBBBAB9B8B7B6B5B4B312
:10470000B2B1B0AFAEADACABAAA9A8A8A7A6A5A4FC
:10471000A3A3A2A1A09F9F9E9D9C9C9B9A999998C0
:104720009797969595949393929191908F8F8E8E63
:104730008D8C8C8B8B8A89898888878786858584F0
:1047400084838382828181800000FF070000F87FDC
:1047500051EA030C17D41CF5801F58BFBCF5801F0D
:1047600000F10680994218BF704708BF9042704719
:1047700007D711F5801F58BF13F5801F19D4994230
:104780007047894270471CF5801F08D5BCF5801F13
:10479000F7D58B4218BF704708BF824270474FF46D
:1047A000001C1CEB410F38BF1CEB430F01D28B42A6
:1047B000704770B500F048F9922449004FF000515D
:1047C0004FF08053FFF760BE4FEA41034FEA535367
:1047D000A3F58063D3F11E03C8BFD3F1210C0CDD18
:1047E0004FF0004242EAC12242EA505232FA03FC40
:1047F0008CEAE17CACEBE1707047102BC4BF002069
:10480000704703F5787CBCF1FF3F04D06FF00042A5
:1048100082EA2100704770B500F016F949922480B1
:1048200000207047F2E710F0004248BF4042B0FA63
:1048300080F310FA03F10AD0C3F11D0303F580637E
:104840004FEA415002EB035202EBD12170474FF087
:1048500000007047B0FA80F310FA03F10AD0C3F1F8
:104860001D0303F580634FEA41504FEA035202EB08
:10487000D12170474FF000007047000051EA030C4F
:1048800017D41CF5801F58BFBCF5801F00F10680AF
:10489000994218BF704708BF9042704707D711F57B
:1048A000801F58BF13F5801F19D499427047894261
:1048B00070471CF5801F08D5BCF5801FF7D58B42CB
:1048C00018BF704708BF824270474FF4001C1CEBB2
:1048D000410F38BF1CEB430F01D28B42704770B5BC
:1048E00000F0B2F8922449004FF000514FF080538D
:1048F000FFF7CABDDFF848C170B51CEA111E1EBF24
:104900001CEA13159EEA0C0F95EA0C0F00F06F805D
:1049100081EA030423EA4C134EEAD47E21EA4C11C7
:1049200041F4801143F48013AE44A1FB024CA0FB80
:104930000365AEF17F7E361955EB0C05A1FB034CE8
:104940004CF10003A0FB021C16EB0C06654153F171
:104950000003094218BF46F0010613F4007F0BD193
:104960004FEA03314FEA0530340341EA155140EA7A
:1049700016506FF003020AE04FEAC3214FEAC52048
:10498000F40241EA555140EA56506FF0020202EB40
:104990002E4201EB025585EACE710AD05FEA440C43
:1049A00018BF24F0004450F1000041F1000120EA5A
:1049B000D47040F2FE7C624500D270BDA84214BFA4
:1049C0004FF080444FF04044002E08BF0024BEF159
:1049D000806FA8BFA1F1C041BDE8704080F2828025
:1049E0004FF0000001F1C04101F0004170479EEA24
:1049F0000C0F0CEA131518BF95EA0C0F06D04FF0F8
:104A0000000081EA030E0EF0004170BD00F01CF8BA
:104A10008900013E00F007B800F009B84FEA430CE6
:104A20005FEA5C5C08D081EA030100F05BB84FEA02
:104A3000410C5FEA5C5CF6D14FF000000149704721
:104A40000000FF070000F87F0EF1020E2EF0030EAB
:104A50005EF8046B364205D4012A43EB030515F5D5
:104A6000001F12D8012841EB010C1CF5001F0CD8C7
:104A70000ED14FEAD17C15F5001F0CEB4C0C0CF15C
:104A8000020C08BF4CEBD37C04E04FF0080C01E0B3
:104A90004FEAD37C0CEB4C0526FA05F606F0070628
:104AA000B6F1040C06D20EEB860CBDE870404CF05B
:104AB000010C6047DFE80CF0090B02024FF00041E7
:104AC0004FF00000A1F5002170BD194610460128E5
:104AD00051EB010418BFD4F5001484BF002001F08D
:104AE000004170BD0808A0F500114FEA3101704780
:104AF00053EA010C17D41CF5801F58BFBCF5801F6A
:104B000000F106808B4218BF704708BF8242704791
:104B100007D713F5801F58BF11F5801F19D48B429A
:104B200070479B4270471CF5801F08D5BCF5801F5D
:104B3000F7D5994218BF704708BF904270474FF4AD
:104B4000001C1CEB430F38BF1CEB410F01D29942F4
:104B500070470FB40CBC03BCFFF7C1BE91EA030F52
:104B600010B581F000413FF5E7AB83F0004300F062
:104B700009B8000010B591EA030F48BF83F0004365
:104B80003FF5DAAB841A71EB030C07D212198CF0E3
:104B9000004C43EB0C03001B61EB0C01DFF8A4E1BC
:104BA0004FEA1154A4EB135C1EEA430F18BF9EEAB0
:104BB000445F00F0B08023EA6E03524221EA0451C0
:104BC000C3EB6E0338BF5B1EDCF1200E25D322FA47
:104BD0000CFE10EB0E0043FA0CFE41EB0E01CCF183
:104BE000200E03FA0EFE10EB0E0051F10001CCF185
:104BF000200E29D412FA0EF201EB0451BDE8104048
:104C000058BF7047401C1CBFB2F1004F70470028CE
:104C10000CBF491C20F00100704712EB020E43EB61
:104C2000030218BF4FF0010E4EEA4202ACF1200C15
:104C3000DCF11E0E54D943FA0CFE10EB0E0051F1BC
:104C4000FF31CCF11E0ED5D50EF1010E12FA0EFE7B
:104C5000404141EB010101EB445C5FEA5C5C10D92F
:104C600010EBDE7001EB045138BFBEF1004FBDE820
:104C7000104018BF704700280CBF491C20F00100ED
:104C8000704730D24FEAD42C11F5001124F400649F
:104C90001BD0B1FA81F20B3AA41AA41ED2F1200360
:104CA000914030FA03F31943904001EBCC71002C92
:104CB00001EB0451BDE81040A8BF704701F1C041AD
:104CC0004FF0000001F000417047B0FA80F310FA95
:104CD00003F100D110BDE41A173C4805C90AE4E706
:104CE00001EB045110BD491001EB0451BDE8104027
:104CF0004FEA300002E04FF0000170474A0008BF61
:104D00000042F8D0B2F5001F28BF704701F0004103
:104D10004FF0000070479EEA445F07D011EA5E0F33
:104D2000BDE8104004BF002100207047BDE81040DE
:104D300070B5FFF789FE00BF40DFF63E83F000410B
:104D4000104670470000E0FF90EA010F48BF81F075
:104D5000004100F1A281421A3CBF801A89184FEA33
:104D6000D0524FF07F4C1CEA410FA2EBD15318BF39
:104D70009CEA026F00F03B804FF0004C4CEA0020B0
:104D80004CEA012121FA03FC10EB0C0C1ED202F1BB
:104D9000FF325FEA1C2040EBC25038BF70471CF066
:104DA0007F0F4FEA400C18BFBCF17F4F38BF7047F0
:104DB000C3F12003994008BF20F00100BCF17F4FF0
:104DC00038BF7047A0F1C04000F05BB94FEA3C002B
:104DD000000A40EBC25028BF1CF0FF0F4FEA400C06
:104DE000E6D018BFBCF17F4F38BF7047EAE79CEAB6
:104DF000026F05D010EA5C0F08BF00F0004070475A
:104E000010B500F0F8F800BF64FBBE3E401058BF7C
:104E1000C0F14040491058BFC1F140418142EFF319
:104E20000080704741000B0ED3F19E0208D950F468
:104E300000034FEA032323FA02F048BF40427047C1
:104E400010B500F0D8F800BF4992248000207047C8
:104E50006FF0004282EA20007047000010F000412D
:104E600048BF4042B0FA80F310FA03F2C3F19D0349
:104E70000BD051EAC35101EB1220530638BF7047E3
:104E800000F1010008BF20F00100704750EA010C5A
:104E900000F113801CF5000F58BFBCF5000F01D4C2
:104EA0008842704707D710F5000F58BF11F5000F63
:104EB00015D488427047894270471CF5000F04D50D
:104EC000BCF5000FF7D5814270474FF0807C1CEB9A
:104ED000400F38BF1CEB410F01D28142704710B523
:104EE00000F089F8922449004FF000504FF08051B3
:104EF000FFF78CBF4FF47F0C1CEAD0121EBF1CEAD8
:104F0000D11392EA0C0F93EA0C0F00F0478090EA5D
:104F1000010F48BF42F480724FF0004C4CEA002071
:104F20004CEA012102EB0302A0FB0113A2F50002EF
:104F3000002918BF43F001035B0028BF4FEA330389
:104F400042EB22425FEA132C4CEBC2502EBFBCEB6B
:104F5000436FB2F57C0F70474FEA036CBCF1004F12
:104F600008BF20F00100B2F57C0F38BF70470BD5A9
:104F700082F0FF0212F5803FC8BF704700F1C040C9
:104F8000D8BF00F00040704700F5000C5FEA4C0C01
:104F900048BF7047B0F1C04000F073B890EA010F0D
:104FA0000CEAD11348BF42F48072624538BF6345B2
:104FB00004D280EA010000F00040704710B500F014
:104FC0001AF800BF8900013E00F007B800F009B8E8
:104FD0005FEA410C5FEA1C6C08D080EA010000F037
:104FE00050B85FEA400C5FEA1C6CF6D14FF000400D
:104FF000A0F5800070470EF1020E2EF0030E5EF851
:10500000044B244204D44FEA4102B2F17F4F11D83D
:105010004FEA4003B3F17F4F0CD80ED14FEAD07C5A
:10502000B2F17F4F0CEB4C0C0CF1020C08BF4CEBB7
:10503000D17C04E04FF0080C01E04FEAD17C0CEB8E
:105040004C0324FA03F404F00704B4F1040C06D270
:105050000EEB840CBDE810404CF0010C6047DFE81B
:105060000CF0070802024FF00040A0F5800010BDD0
:105070000846420018BFD2F1807288BF00F000409D
:1050800010BDFF2141EAD050C005704790EA010FE2
:1050900048BF81F000413FF55EAE421A04D882F06D
:1050A0000042A0EB020011444FEAD0524FF07F4C77
:1050B0001CEA410FA2EBD15318BF9CEA026F4AD001
:1050C0004FF0004C4CEA00204CEA012121FA03FC8D
:1050D000B0EB0C0C0FD412F0FE0F36D05FEA4C0090
:1050E0001DD5001240EBC25038BF70471CF03F0F77
:1050F00018BF70470BE0A2F101025FEA1C2040EBF1
:10510000C25038BF70471CF07F0F18BF7047C3F103
:105110002003994014BF401E20F001007047800812
:105120004FEA122308BF7047B0FA80FCA2EB0C02D2
:10513000CCF1280C60FA0CF093EA122F04BF00EBBC
:10514000C25070474FEAC3707047130A5FEADC1021
:1051500008BF7047F6E79CEA026F04D010EA5C0FC4
:1051600008BF0020704710B5FFF745FF40DFF63E4F
:1051700081F0004070470CF00F03092B08BF082096
:1051800000F059800A2B0BD0082B18BF704708BFBE
:105190001CF0400F0AD04FF000004FF000017047A4
:1051A0001CF0400F18BF4FF0004070471CF0100F6C
:1051B00008D020F0704300F07F4242EAD3014FEA6A
:1051C0004370704700F0604021F07F4242EA0002E5
:1051D00001F07F4040EA727070474FF0FF0C4CF4D2
:1051E000E06C1CEA11531CBF9CEA030C9445C2BF3F
:1051F000DA4201EB02517047002B0DD0BCF1000FD9
:105200000FD0002A01F00041A4BF41F0E04141F07D
:105210007F614FF00000704701F000414FF0000047
:10522000704750EA01334FF09B0C18BF4CF0806C74
:105230007FF422A970471CF4801F11D01CF4E02FCA
:1052400003D06FEACC31490070474FF04050EFF384
:10525000008222F0704242EA000282F30088704726
:105260004FF0000070470000000000000000010245
:1052700003040607080900000000010203040000FF
:10528000000000000000000000000000040404040E
:1052900004000004000014140A00000000000000D4
:1052A000000000000A0A1F0A0A1F0A0A0000000480
:1052B0000E1505060C14150E0400000012150D1530
:1052C0002E2C2A1200000000040A0A361515291691
:1052D00000000202010000000000000000001008B1
:1052E0000804040404040808100002040408080860
:1052F00008080404020000000004150E0E15040046
:10530000000000000008083E08080000000000003F
:105310000000000000000202010000000000003F49
:10532000000000000000000000000000000000027B
:105330000000002010100808040402020100000010
:105340000E1111111111110E0000000004060404C9
:105350000404040E000000000E1111080402011FD5
:10536000000000000E11100C1010110E00000000C3
:10537000080C0C0A091F081C000000001F01010F87
:105380001110110E000000000C12010D1311110E6E
:10539000000000001E1008080404040400000000BF
:1053A0000E11110E1111110E000000000E11111935
:1053B00016100906000000000000040000000004B0
:1053C00000000000000000040000000404000000D1
:1053D00010080402020408100000000000003F0052
:1053E0003F00000000000000020408101008040242
:1053F000000000000E111108040400040000000069
:105400001C22292D2D1D221C0000000004040C0A62
:105410000A1E1233000000000F12120E1212120F99
:10542000000000001E1101010101110E000000002A
:105430000F1212121212120F000000001F120A0E99
:105440000A02121F000000001F120A0E0A020207C1
:10545000000000001C1201013911120C00000000B4
:105460003312121E12121233000000001F04040433
:105470000404041F000000003E080808080808088B
:105480000907000037120A060A121237000000004E
:10549000070202020202223F000000003B1B1B1B0E
:1054A00015151535000000003B1216161A1A1217B2
:1054B000000000000E1111111111110E000000006A
:1054C0000F12120E02020207000000000E1111114D
:1054D0001117190E180000000F12120E0A121237BF
:1054E000000000001E1101060810110F000000004E
:1054F0001F1504040404040E0000000033121212ED
:105500001212120C000000003312120A0A0C0404DA
:1055100000000000151515150E0A0A0A000000000B
:105520001B0A0A04040A0A1B000000001B0A0A0ADC
:105530000404040E000000001F0908040402121FE6
:1055400000001C0404040404040404041C000002FD
:10555000020404040808081010000E0808080808CF
:10556000080808080E00040A0000000000000000FF
:10557000000000000000000000000000003F0204E6
:105580000000000000000000000000000000000C0F
:10559000121C123C000000030202020E1212120E34
:1055A000000000000000001C1202120C0000001895
:1055B0001010101C1212123C000000000000000C21
:1055C000121E021C000000182404041E0404041E01
:1055D000000000000000003C120C021C221C000312
:1055E0000202020E1212123700000004040000062C
:1055F0000404040E000000080800000C0808080855
:10560000080700030202021A0A060A130000000734
:10561000040404040404041F000000000000000F40
:1056200015151515000000000000000F12121237AA
:10563000000000000000000C1212120C000000001C
:105640000000000F1212120E020700000000001CE2
:105650001212121C103800000000001B0602020784
:10566000000000000000001E020C101E00000000E0
:105670000004041E0404041C000000000000001BC1
:105680001212123C000000000000001B0A0A040471
:105690000000000000000015150E0A0A00000000BE
:1056A0000000001B0A040A1B000000000000003379
:1056B00012120C08040300000000001E0804041E5F
:1056C000000018080808080C08080808180008084E
:1056D000080808080808080808080604040404085C
:1056E0000404040406001609000000000000000085
:1056F00000000000000000000000000000000000AA
:105700000000000000080808080808080000181831
:10571000000000486C24120000000000000000009F
:1057200000000000002424247F1212127F121212A3
:1057300000000000081C2A2A0A0C1828282A2A1C03
:10574000080800000022251515152A585454542223
:1057500000000000000C1212120A76252911916E29
:105760000000000606040300000000000000000026
:105770000000004020101008080808080810102039
:10578000400000020408081010101010100808044F
:1057900002000000000008086B1C1C6B08080000D9
:1057A000000000000000080808087F08080808003A
:1057B00000000000000000000000000000000606DD
:1057C00004030000000000000000FE0000000000D4
:1057D00000000000000000000000000000000606BD
:1057E000000000008040402020101008080404023F
:1057F0000200000000182442424242424242241861
:105800000000000000080E08080808080808083E04
:1058100000000000003C4242422020100804427E6A
:1058200000000000003C4242201820404042221C60
:105830000000000000203028242422227E2020782E
:1058400000000000007E0202021A26404042221C94
:105850000000000000382402021A264242422418A6
:1058600000000000007E2222101008080808080826
:1058700000000000003C4242422418244242423CC4
:105880000000000000182442424264584040241C9A
:1058900000000000000000001818000000001818A8
:1058A00000000000000000000008000000000008E8
:1058B00008040000004020100804020408102040E2
:1058C00000000000000000007F0000007F000000DA
:1058D000000000000002040810204020100804020C
:1058E00000000000003C4242464020101000181802
:1058F00000000000001C225A555555552D42221C0F
:1059000000000000000808181414243C224242E75A
:1059100000000000001F2222221E22424242221FBB
:1059200000000000007C4242010101010142221CF2
:1059300000000000001F2242424242424242221F17
:1059400000000000003F4212121E12120242423FAB
:1059500000000000003F4212121E12120202020753
:1059600000000000003C2222010101712122221CC2
:105970000000000000E7424242427E42424242E7CB
:1059800000000000003E0808080808080808083E53
:1059900000000000007C10101010101010101010EB
:1059A000110F0000007722120A0E0A12122222772B
:1059B0000000000000070202020202020202427F0F
:1059C000000000000077363636362A2A2A2A2A6B4B
:1059D0000000000000E346464A4A525252626247C3
:1059E00000000000001C2241414141414141221C74
:1059F00000000000003F424242423E020202020713
:105A000000000000001C2241414141414D53321C25
:105A100060000000003F4242423E1212222242C772
:105A200000000000007C4242020418204042423E36
:105A300000000000007F4908080808080808081C42
:105A40000000000000E74242424242424242423CE1
:105A50000000000000E74242222424141418080821
:105A600000000000006B4949494955553622222261
:105A70000000000000E7422424181818242442E7FC
:105A80000000000000772222141408080808081CEF
:105A900000000000007E2120101008040442423F54
:105AA000000000780808080808080808080808081E
:105AB00078000000020204040808081010202020CA
:105AC0004040001E10101010101010101010101078
:105AD0001E0000384400000000000000000000002C
